:020000040800F2
:1000000000500020391500081914000821140008B8
:1000100029140008311400083914000800000000F9
:100020000000000000000000000000004114000873
:100030004D14000800000000591400086514000861
:100040008115000881150008811500088115000838
:100050008115000881150008811500088115000828
:100060008115000881150008811500088115000818
:100070008115000881150008811500088115000808
:100080008115000881150008811500087114000809
:1000900085140008991400088115000881150008CE
:1000A00081150008811500088115000881150008D8
:1000B000AD1400088115000881150008811500089D
:1000C00081150008811500088115000881150008B8
:1000D00081150008811500088115000881150008A8
:1000E0008115000881150008811500080000000036
:1000F0000000000000000000000000000000000000
:0C01000000000000000000005FF808F1A3
:10010C0010B5054C237833B9044B13B10448AFF345
:10011C0000800123237010BD5C0000200000000053
:10012C009446000808B5034B1BB103490348AFF3D1
:10013C00008008BD0000000060000020944600080C
:10014C00034613F8012B002AFBD1181A013870470B
:10015C0080B5A2B000AF786007F108007B680B4A4D
:10016C00802103F0CDFD07F108031846FFF7E8FFE7
:10017C0003469AB207F108014FF0FF33044803F02D
:10018C00EBFB00BF8837BD4680BD00BFAC46000806
:10019C00180A002080B500AF174B1B78062B27D808
:1001AC0001A252F823F000BFD1010008FD010008A4
:1001BC00DF010008FD010008E7010008FD0100084F
:1001CC00F50100080C4B01221A700C48FFF7C0FF18
:1001DC000FE00B48FFF7BCFF0BE0074B05221A7032
:1001EC000848FFF7B5FF04E00748FFF7B1FF00E050
:1001FC0000BF00BF80BD00BF78000020B4460008DF
:10020C00D4460008044700083047000880B594B075
:10021C0000AF786039607B681B68A7F84E30B7F880
:10022C004E3007F10C003E4A402103F069FD07F106
:10023C000C031846FFF78CFFB7F84E30802B03D118
:10024C003848FFF785FF4FE0B7F84E30B3F5C07F65
:10025C000ED3B7F84E30B3F5A06F09D27B681B698B
:10026C00DAB2B7F84E303968184600F0B3F93BE013
:10027C00B7F84E30B3F5B06F1FD3B7F84E30B3F5B7
:10028C00C06F1AD22848FFF763FFB7F84E30DBB2C5
:10029C0003F07F03D8B27B681B69DBB21A4639685E
:1002AC0000F0D6FA214B1B78032B1DD11F4B0422D7
:1002BC001A701F48FFF74CFF16E0B7F84E30B3F535
:1002CC00E06F0ED3B7F84E30B3F5006F09D27B68F0
:1002DC001B69DAB2B7F84E303968184600F0D2F81C
:1002EC0002E01448FFF734FF104B1B78042B12D19B
:1002FC00114B1B78002B0ED11048FFF729FF012062
:10030C0000F01EFC0C4B01221A70084B05221A70CF
:10031C000B48FFF71DFF00BF5037BD4680BD00BF27
:10032C00444700085C47000870470008780000202C
:10033C0080470008A8470008A4090020B847000817
:10034C00E047000880B58CB000AF78600B46FB70BE
:10035C0007F1140300221A605A609A60DA601A617D
:10036C005A6141F210033B82FB787B6102237B6272
:10037C0000233B620023FB6107F10C0307F1100221
:10038C0007F11401786801F085FB0346002B03D0BC
:10039C001248FFF7DDFE1EE01148FFF7D9FE01F011
:1003AC0043F9F8620FE001F03FF90246FB6AD31AF9
:1003BC0040F6B832934203D90A48FFF7C9FE0AE067
:1003CC000A2001F03BF9084B1B78DBB2002BEAD07A
:1003DC000648FFF7BDFE3037BD4680BD68480008B3
:1003EC0088480008AC48000879000020D84800086C
:1003FC0080B59CB002AF78600B46FB701346BB70A7
:10040C0007F1500300221A605A609A60DA601A6190
:10041C005A61FB7887F84C30BB7887F84D30002355
:10042C003B6502233B660023FB650023BB6507F19C
:10043C00480307F14C0207F15001786801F02AFBE0
:10044C000346002B12D1F978BB78BA6C07F108007F
:10045C00019200930B46094A402103F051FC07F12D
:10046C0008031846FFF774FE002303E00448FFF767
:10047C006FFE012318466837BD4680BD0049000851
:10048C003049000880B596B002AF03463960FB8056
:10049C0013467B717B79022B0FD13B681B78AA2BFF
:1004AC000BD13B6801331B78BB2B06D11D48FFF7E2
:1004BC004FFE1D4B01221A7030E07B79012B0AD1C3
:1004CC003B681B787F2B06D11848FFF741FE184B71
:1004DC0001221A7022E07B79002B1FD0FB88B3F528
:1004EC00E06F1BD3FB88B3F5006F17D2FB88DBB230
:1004FC0003F07F0387F84F3097F84F203B681B7849
:10050C0007F10C00009313460A4A402103F0F8FB54
:10051C0007F10C031846FFF71BFEFFE700BF50372F
:10052C00BD4680BD4049000879000020684900089C
:10053C007A0000208C49000880B59CB000AF786030
:10054C000B46FB7007F1580300221A605A609A6040
:10055C00DA601A615A611B4A07F1500392E80300F2
:10056C0083E80300FB7803F5C063BB650823BB6617
:10057C0000237B6600233B66FB7807F10C00124AD4
:10058C00402103F0BDFB07F10C031846FFF7E0FD1B
:10059C0007F14C0307F1500207F15801786801F09C
:1005AC0079FA0346002B03D00848FFF7D1FD05E08C
:1005BC00642001F043F80648FFF7CAFD7037BD46CA
:1005CC0080BD00BF1C4A0008B4490008D849000887
:1005DC00FC49000880B584B000AF03463960FB804D
:1005EC0013467B71FB88DBB203F07F03FB73FB7B51
:1005FC00072B2ED8FB8803F47863BB81BB89A3F54A
:10060C00C073002B00DAFF331B12FB72FB7A032B37
:10061C0021D8FA7BFB7AD9001346DB0013449B00EC
:10062C000B440F4A13447A793968184603F0D2FB0D
:10063C00FA7BF97A0A481346DB0013449B00034407
:10064C000B4420337A791A70FB7B064A0121D15472
:10065C0002E000BF00E000BF1037BD4680BD00BF08
:10066C007C0000209C01002080B586B002AF786031
:10067C000B46FB700023FB73FB7803F1004303F57F
:10068C000073F97804220192009301234FF4A052D5
:10069C00786800F02DF903461A46FB7B1343FB7375
:1006AC000A2000F0CBFFF97801230193012300937A
:1006BC0002234FF4A052786800F01AF903461A4648
:1006CC00FB7B1343FB730A2000F0B8FFF97801237E
:1006DC0001930023009300234FF4B052786800F08C
:1006EC0007F903461A46FB7B1343FB730A2000F001
:1006FC00A5FFF978042301932C4B009301234FF4AD
:10070C00B052786800F0F4F803461A46FB7B1343AA
:10071C00FB730A2000F092FFF97804230193244B19
:10072C00009302234FF4B052786800F0E1F80346CE
:10073C001A46FB7B1343FB730A2000F07FFFF9780A
:10074C00012301930223009300234FF4B0527868E5
:10075C0000F0CEF803461A46FB7B1343FB730A20CA
:10076C0000F06CFFFB7803F500731A46F97804234C
:10077C000193009201234FF4A052786800F0B8F86E
:10078C0003461A46FB7B1343FB730A2000F056FF0B
:10079C00FB7B002B01D1074B00E0074B1846FFF702
:1007AC00D7FCFB7B18461037BD4680BD100040605F
:1007BC002000FF60484A0008644A000880B59AB0DF
:1007CC0002AFF8600B467A60FB721D48FFF7C0FC65
:1007DC001C4A07F1540392E8030083E8030000234A
:1007EC00FB6523E0FB6D5B0060333B4433F80C3C52
:1007FC0007F114000093FB6D134A402103F080FABB
:10080C0007F114031846FFF7A3FCFB6D5B00603384
:10081C003B4433F80C2CF97A7B68F86800F0DAF971
:10082C00642000F00BFFFB6D0133FB65FB6D032BAC
:10083C00D8DD0648FFF78CFC00BF6037BD4680BD95
:10084C00804A0008DC4A0008A84A0008C44A00088C
:10085C0080B485B000AF03463960FB711346BB71A1
:10086C0097F90730002B3CDBBB79072B39D9FB7987
:10087C001B011E4A1344FB603B681B7823F01F03CB
:10088C00FB72FB7A402B05D0FB7A432B02D0FB7A10
:10089C00472B1CD13B6804331B781A463B68053345
:1008AC001B781B021A433B6806331B781B041A4344
:1008BC003B6807331B781B0613431A46FB689A6088
:1008CC00FB6801225A70FB6800221A700AE0FB7A5E
:1008DC00802B07D1FB6801229A70FB6800221A70EA
:1008EC0000E000BF1437BD4680BC7047A401002057
:1008FC0080B58CB000AF7860084611461A460346A6
:10090C00FB700B463B801346BB7007F118030022AB
:10091C001A605A609A60DA601A615A6107F1100322
:10092C0000221A605A60FB7803F5C063BB61082390
:10093C00BB6200233B6200237B6297F83C30042BA4
:10094C0016D0042B26DC012B02D0022B06D021E082
:10095C002F233B74BB6BDBB23B751DE02B233B742D
:10096C00BB6BDBB23B75BB6B1B0ADBB27B7513E05D
:10097C0023233B74BB6BDBB23B75BB6B1B0ADBB23B
:10098C007B75BB6B1B0CDBB2BB75BB6B1B0EDBB285
:10099C00FB7501E0012313E03B88DBB27B743B88E1
:1009AC001B0A9BB2DBB2BB74BB78FB7407F10C0364
:1009BC0007F1100207F11801786801F06BF8034693
:1009CC0018463037BD4680BD80B58AB002AF78601E
:1009DC000B46FB705048FFF7BBFB0023FB77F97805
:1009EC000123019303230093002346F260027868ED
:1009FC00FFF77EFF03461A46FB7F1343FB7732203B
:100A0C0000F01CFE454A07F10C0392E8030083E852
:100A1C0003000023BB611BE0BB695B0020333B443C
:100A2C0033F8143C1A46F978022301930092002300
:100A3C0046F240027868FFF75BFF03461A46FB7FDD
:100A4C001343FB77322000F0F9FDBB690133BB6126
:100A5C00BB69032BE0DDF978042301934FF4C873D1
:100A6C000093002342F21C027868FFF741FF034613
:100A7C001A46FB7F1343FB77142000F0DFFDF97857
:100A8C00042301934FF47A730093002342F21D0266
:100A9C007868FFF72DFF03461A46FB7F1343FB775D
:100AAC00142000F0CBFD44F620637B617B69F97860
:100ABC00042201920093002346F2FF027868FFF7AC
:100ACC0017FF03461A46FB7F1343FB7741F288302E
:100ADC0000F0B4FDF9780423019300230093002364
:100AEC0046F2FF027868FFF703FF03461A46FB7FC6
:100AFC001343FB77642000F0A1FDFB7F002B01D199
:100B0C00074B00E0074B1846FFF722FBFB7F18460C
:100B1C002037BD4680BD00BF004B0008644B000869
:100B2C002C4B0008484B000880B400AF034B00224C
:100B3C001A8000BFBD4680BC704700BFA6090020CC
:100B4C0080B483B000AF0346FB71044AFB79137089
:100B5C0000BF0C37BD4680BC704700BFA409002005
:100B6C0080B400AF024B1B781846BD4680BC704762
:100B7C00A409002080B58AB000AF7860124B1B78B6
:100B8C00002B1DD000233B7380233B610023BB61F2
:100B9C000023FB6100233B6207F1080307F10C0201
:100BAC0007F11001786800F075FF0346002B03D0A5
:100BBC000648FFF7CDFA04E00548FFF7C9FA00E054
:100BCC0000BF2837BD4680BDA4090020C84B0008D3
:100BDC00DC4B000880B58EB000AFF8607B600B4634
:100BEC00FB7213463B8107F1140300221A605A6012
:100BFC003B89DBB23B753B891B0A9BB2DBB27B7535
:100C0C007B68DBB2BB757B681B12DBB2FB757B6848
:100C1C001B14DBB23B767B681B0EDBB27B76174872
:100C2C00FFF796FA0023BB760023FB76FB7A03F5DD
:100C3C0000733B6208233B630023BB620023FB620F
:100C4C0007F11C0307F1140207F12001F86800F00A
:100C5C0021FF0346002B03D00948FFF779FA0AE07D
:100C6C00084B1B78002B03D0F868FFF783FF02E0DA
:100C7C000548FFF76DFA3837BD4680BDE84B0008D4
:100C8C00004C0008A4090020144C000880B500AFEB
:100C9C001448FFF75DFA00F059F81348FFF758FABB
:100CAC00124800F0B3FE0346002B05D01048FFF7A6
:100CBC004FFA00F0A1FA02E00E48FFF749FA0221C0
:100CCC000A4801F0D7F80346002B05D00A48FFF775
:100CDC003FFA00F091FA02E00848FFF739FA00BF3A
:100CEC0080BD00BF2C4C0008504C0008A809002007
:100CFC00704C0008904C0008AC4C0008DC4C000810
:100D0C0080B59CB000AF786007F14C0307F154023A
:100D1C000021786800F08DFF0346002B0DD107F100
:100D2C000C031846FFF714FA07F14C0207F15403B1
:100D3C0011461846FFF76AFA02E00348FFF708FA73
:100D4C0000BF7037BD4680BD084D000880B58AB025
:100D5C0000AF3B4628220021184603F007F8002379
:100D6C007B610023BB610123FB6100233B600023FB
:100D7C007B600023BB600023FB6000233B610123ED
:100D8C003B620E237B623B461946094800F075FD19
:100D9C000346002B05D00748FFF7DAF900F02CFAD0
:100DAC0002E00548FFF7D4F900BF2837BD4680BDE7
:100DBC00A8090020604D0008904D000880B500AFD8
:100DCC0000F0DAFB00F0A4F800F096F900F0E6F879
:100DDC0000F068F900F018F94A48FFF7B9F9FFF785
:100DEC0055FF4FF4FA7000F029FC0322812146488C
:100DFC00FFF7FEFA022281214348FFF7F9FA4FF47C
:100E0C00967000F01BFC032201213F48FFF7F0FA1B
:100E1C00022201213C48FFF7EBFA4FF4967000F0E8
:100E2C000DFC03213848FFF78DFA02213648FFF7F5
:100E3C0089FA642000F002FC03213348FFF77CFBA5
:100E4C0002213148FFF778FB642000F0F7FB032107
:100E5C002D48FFF7B9FD02212B48FFF7B5FD6420A3
:100E6C0000F0ECFB032201212748FFF7C1FA022214
:100E7C0001212548FFF7BCFA642000F0DFFB0321B9
:100E8C002148FFF7F1FB02211F48FFF7EDFB4FF460
:100E9C00FA6203211C48FFF791FC4FF4FA6202211D
:100EAC001948FFF78BFCFFF73FFE0120FFF748FEC8
:100EBC00164802F031F94FF4FA5000F0BFFB13481A
:100ECC0002F07CF90020FFF73BFE40F6B83000F052
:100EDC00B5FBFFF729FE0120FFF732FE0B4802F0AD
:100EEC001BF941F2883000F0A9FB084802F066F9C2
:100EFC000020FFF725FEFFF74DF90A2000F09EFBBE
:100F0C0000BFF8E7C44D0008A8090020D009002054
:100F1C0080B590B000AF07F11803282200211846C5
:100F2C0002F024FF3B1D00221A605A609A60DA60BE
:100F3C001A610123BB614FF48033FB6100233B62D8
:100F4C000123BB6202237B634FF48033BB634FF4FA
:100F5C00E013FB6307F11803184601F07DFC034610
:100F6C00002B01D000F048F90F237B600223BB60FB
:100F7C000023FB604FF480633B6100237B613B1DCE
:100F8C000221184601F0EAFE0346002B01D000F0C6
:100F9C0033F900BF4037BD4680BD000080B500AFBF
:100FAC00174B184A1A60164B12225A60144B002227
:100FBC009A60134B0022DA60114B4FF480321A61A5
:100FCC000F4B00225A610E4B00221A760C4B00225A
:100FDC005A760B4B00229A76094B0022DA76084B94
:100FEC0000221A77064B00225A77054800F04AFB7C
:100FFC000346002B01D000F0FFF800BF80BD00BFFE
:10100C00A80900200064004080B586B000AF07F14D
:10101C00080300221A605A609A60DA603B4600228C
:10102C001A605A601E4B4FF080421A601C4B41F6FE
:10103C001F425A601A4B00229A60194B40F2E73259
:10104C00DA60174B00221A61154B00229A61144882
:10105C0002F012F80346002B01D000F0CDF84FF44B
:10106C008053BB6007F1080319460D4802F0C4F920
:10107C000346002B01D000F0BFF800233B60002397
:10108C007B603B461946064802F0A6FB0346002B44
:10109C0001D000F0B1F800BF1837BD4680BD00BFCD
:1010AC00D009002080B500AF114B124A1A60104BCA
:1010BC004FF4E1325A600E4B00229A600C4B002226
:1010CC00DA600B4B00221A61094B0C225A61084B57
:1010DC0000229A61064B0022DA61054802F0ECFB13
:1010EC000346002B01D000F087F800BF80BD00BF85
:1010FC00180A00200044004080B586B000AF07F10C
:10110C00080300221A605A609A60DA60184B9B69D7
:10111C00174A43F020039361154B9B6903F020039E
:10112C007B607B68124B9B69114A43F0040393610B
:10113C000F4B9B6903F004033B603B6801224FF4A7
:10114C0080610C4801F070FB4FF48063BB6001239D
:10115C00FB6000233B6102237B6107F10803194606
:10116C00044801F0DDF900BF1837BD4680BD00BF53
:10117C00001002400008014080B584B000AF7860D8
:10118C007B681B68B3F1804F2CD1FFF7E9FC034659
:10119C00002B27D0154B1B884F2B02D842F228333B
:1011AC0000E00023FB60FB680F2203211048FFF7CF
:1011BC0011FDFB680F2202210D48FFF70BFD0B4BB5
:1011CC001B88502B08D10020FFF7BAFC786801F07F
:1011DC00F5FF0848FEF7BCFF044B1B8801339AB29D
:1011EC00024B1A8000BF1037BD4680BDA6090020F7
:1011FC00A8090020D84D000880B400AF72B600BF1B
:10120C0000BFFDE780B485B000AF154B9B69144A55
:10121C0043F001039361124B9B6903F00103BB6024
:10122C00BB680F4BDB690E4A43F08053D3610C4B08
:10123C00DB6903F080537B607B680A4B5B68FB6067
:10124C00FB6823F0E063FB60FB6843F00073FB601A
:10125C00044AFB68536000BF1437BD4680BC70471E
:10126C00001002400000014080B588B000AF7860EB
:10127C0007F1100300221A605A609A60DA607B68EA
:10128C001B68284A934249D1274BDB69264A43F015
:10129C000073D361244BDB6903F00073FB60FB68C4
:1012AC00214B9B69204A43F0040393611E4B9B69BD
:1012BC0003F00403BB60BB684FF400633B61002385
:1012CC007B610023BB6107F110031946174801F03D
:1012DC0027F94FF480533B6102237B610323FB61AD
:1012EC0007F110031946114801F01AF900220021E8
:1012FC00132001F0DEF8132001F0F7F80022002192
:10130C00142001F0D6F8142001F0EFF8002200218F
:10131C00152001F0CEF8152001F0E7F800BF2037BA
:10132C00BD4680BD00640040001002400008014032
:10133C0080B584B000AF78607B681B68B3F1804FD8
:10134C0013D10C4BDB690B4A43F00103D361094BFE
:10135C00DB6903F00103FB60FB68002200211C2009
:10136C0001F0A7F81C2001F0C0F800BF1037BD46F3
:10137C0080BD00BF0010024080B588B000AF78601F
:10138C0007F1100300221A605A609A60DA607B68D9
:10139C001B681B4A93422FD11A4BDB69194A43F441
:1013AC000033D361174BDB6903F40033FB60FB683C
:1013BC00144B9B69134A43F004039361114B9B69D3
:1013CC0003F00403BB60BB6804233B6102237B6115
:1013DC000323FB6107F1100319460B4801F0A0F839
:1013EC0008233B6100237B610023BB6107F11003E1
:1013FC001946054801F094F800BF2037BD4680BD62
:10140C0000440040001002400008014080B400AFCE
:10141C0000BFFDE780B400AF00BFFDE780B400AFB4
:10142C0000BFFDE780B400AF00BFFDE780B400AFA4
:10143C0000BFFDE780B400AF00BFBD4680BC704765
:10144C0080B400AF00BFBD4680BC704780B400AF15
:10145C0000BFBD4680BC704780B500AF00F0D2F82D
:10146C0000BF80BD80B500AF024800F028FD00BF72
:10147C0080BD00BFA809002080B500AF024800F075
:10148C001EFD00BF80BD00BFA809002080B500AFC5
:10149C00024800F014FD00BF80BD00BFA809002069
:1014AC0080B500AF024801F0B7FE00BF80BD00BFA1
:1014BC00D009002080B586B000AF7860144A154B77
:1014CC00D31A7B617B693B61134B1B68002B02D1E8
:1014DC00114B124A1A60104B1A687B6813443A6914
:1014EC009A4207D202F04AFC03460C221A604FF0D3
:1014FC00FF3309E0084B1B68FB60074B1A687B68DD
:10150C001344054A1360FB6818461837BD4680BD66
:10151C000050002000040000600A0020B00B0020E6
:10152C0080B400AF00BFBD4680BC7047FFF7F8FF2A
:10153C000B480C490C4A002302E0D458C450043325
:10154C00C4188C42F9D3094A094C002301E01360FA
:10155C000432A242FBD302F017FCFFF72FFC7047BA
:10156C00000000205C0000205C4E00085C000020A5
:10157C00B00B0020FEE7000080B500AF084B1B68E5
:10158C00074A43F010031360032000F087FF0F207D
:10159C0000F008F8FFF736FE0023184680BD00BFA8
:1015AC000020024080B582B000AF7860124B1A6800
:1015BC00124B1B7819464FF47A73B3FBF1F3B2FB61
:1015CC00F3F3184600F09FFF0346002B01D00123D4
:1015DC000EE07B680F2B0AD8002279684FF0FF30A1
:1015EC0000F067FF064A7B681360002300E00123CC
:1015FC0018460837BD4680BD0000002008000020BA
:10160C000400002080B400AF054B1B781A46054B34
:10161C001B681344034A136000BFBD4680BC70476F
:10162C0008000020640A002080B400AF024B1B6845
:10163C001846BD4680BC7047640A002080B584B053
:10164C0000AF7860FFF7F0FFB8607B68FB60FB6869
:10165C00B3F1FF3F05D00A4B1B781A46FB681344C5
:10166C00FB6000BFFFF7E0FF0246BB68D31AFA68C5
:10167C009A42F7D800BF00BF1037BD4680BD00BFEF
:10168C000800002080B584B000AF78607B68002B28
:10169C0001D10123EDE07B6893F82030DBB2002B05
:1016AC0002D17868FFF7E0FD7B681B681A687B68DD
:1016BC001B6842F001021A60FFF7B6FFF86012E0F7
:1016CC00FFF7B2FF0246FB68D31A0A2B0BD97B68D3
:1016DC005B6A43F400327B685A627B68052283F8AC
:1016EC0020200123C5E07B681B685B6803F00103C5
:1016FC00002BE5D07B681B681A687B681B6822F09E
:10170C0002021A60FFF790FFF86012E0FFF78CFFFF
:10171C000246FB68D31A0A2B0BD97B685B6A43F42D
:10172C0000327B685A627B68052283F820200123F3
:10173C009FE07B681B685B6803F00203002BE5D11C
:10174C007B681B7E012B08D17B681B681A687B6841
:10175C001B6842F080021A6007E07B681B681A68FD
:10176C007B681B6822F080021A607B685B7E012B11
:10177C0008D17B681B681A687B681B6842F04002C2
:10178C001A6007E07B681B681A687B681B6822F08C
:10179C0040021A607B689B7E012B08D17B681B681A
:1017AC001A687B681B6842F020021A6007E07B68AD
:1017BC001B681A687B681B6822F020021A607B6821
:1017CC00DB7E012B08D17B681B681A687B681B6861
:1017DC0022F010021A6007E07B681B681A687B68AD
:1017EC001B6842F010021A607B681B7F012B08D12A
:1017FC007B681B681A687B681B6842F008021A60D9
:10180C0007E07B681B681A687B681B6822F008027B
:10181C001A607B685B7F012B08D17B681B681A6898
:10182C007B681B6842F004021A6007E07B681B6847
:10183C001A687B681B6822F004021A607B689A683D
:10184C007B68DB681A437B681B691A437B685B699E
:10185C0042EA03017B685B685A1E7B681B680A437B
:10186C00DA617B6800225A627B68012283F82020AF
:10187C00002318461037BD4680BD80B487B000AF3A
:10188C00786039607B681B687B617B6893F82030DB
:10189C00FB74FB7C012B03D0FB7C022B40F0AA8059
:1018AC007B69D3F8003243F001027B69C3F8002254
:1018BC003B685B6903F01F03012202FA03F3FB6030
:1018CC007B69D3F81C22FB68DB431A407B69C3F8A5
:1018DC001C223B68DB69002B23D17B69D3F80C22DB
:1018EC00FB68DB431A407B69C3F80C223B68DB685E
:1018FC0019043B685B689BB23A68526919437B696F
:10190C00483243F832103B689B6819043B681B68EB
:10191C009AB23B685B690A4379694833DB000B4434
:10192C005A603B68DB69012B22D17B69D3F80C220E
:10193C00FB681A437B69C3F80C223B681B681904CB
:10194C003B685B689BB23A68526919437B694832C1
:10195C0043F832103B689B6819043B68DB689AB209
:10196C003B685B690A4379694833DB000B445A6076
:10197C003B689B69002B09D17B69D3F80422FB6877
:10198C00DB431A407B69C3F8042207E07B69D3F878
:10199C000422FB681A437B69C3F804223B681B6969
:1019AC00002B09D17B69D3F81422FB68DB431A4066
:1019BC007B69C3F8142207E07B69D3F81422FB6817
:1019CC001A437B69C3F814223B681B6A012B07D1AD
:1019DC007B69D3F81C22FB681A437B69C3F81C2271
:1019EC007B69D3F8003223F001027B69C3F8002233
:1019FC00002306E07B685B6A43F480227B685A62B2
:101A0C00012318461C37BD4680BC704780B584B096
:101A1C0000AF78607B6893F82030DBB2012B2ED1BD
:101A2C007B68022283F820207B681B681A687B681D
:101A3C001B6822F001021A60FFF7F6FDF86012E055
:101A4C00FFF7F2FD0246FB68D31A0A2B0BD97B6811
:101A5C005B6A43F400327B685A627B68052283F828
:101A6C002020012312E07B681B685B6803F00103F4
:101A7C00002BE5D17B6800225A62002306E07B68CC
:101A8C005B6A43F400227B685A62012318461037C4
:101A9C00BD4680BD80B489B000AFF860B9607A6093
:101AAC003B60FB6893F82030FB77FB681B689B68F6
:101ABC00BB61FB7F012B03D0FB7F022B40F0AD8081
:101ACC00BB6903F08063002B0AD1BB6903F0006390
:101ADC00002B05D1BB6903F08053002B00F09580DF
:101AEC00BB691B0E03F003037B6101227B699A40E7
:101AFC003B681A60BB689B68002B0DD1BB681B68E8
:101B0C005A05BB68DB68F96809681A437B691833A6
:101B1C001B010B441A600FE0BB685B68DA00BB6802
:101B2C009B681A43BB68DB68F96809681A437B69D0
:101B3C0018331B010B441A60FB681968BB681A69DF
:101B4C007B6918331B010B4404331A60BB681B7D83
:101B5C00012B11D1FB681A687B6918331B011344E4
:101B6C0004331B68FA68116843F480727B6918337C
:101B7C001B010B4404331A607B6807331B781A066D
:101B8C007B6806331B781B041A437B6805331B7870
:101B9C001B0213437A68043212781046FA681168F3
:101BAC0043EA00027B691B010B4403F5C6731A6000
:101BBC007B6803331B781A067B6802331B781B0483
:101BCC001A437B6801331B781B0213437A68127823
:101BDC001046FA68116843EA00027B691B010B444A
:101BEC0003F5C4731A60FB681A687B6918331B0110
:101BFC0013441B68FA68116843F001027B691833BF
:101C0C001B010B441A6000230EE0FB685B6A43F473
:101C1C000012FB685A62012306E0FB685B6A43F41E
:101C2C008022FB685A62012318462437BD4680BCCB
:101C3C00704780B487B000AFF860B9607A603B60E1
:101C4C00FB6893F82030FB75FB7D012B03D0FB7DEB
:101C5C00022B40F00381BB68002B0ED1FB681B6884
:101C6C00DB6803F00303002B16D1FB685B6A43F4BB
:101C7C000012FB685A620123F7E0FB681B681B69C2
:101C8C0003F00303002B07D1FB685B6A43F40012DB
:101C9C00FB685A620123E8E0FB681A68BB681B33D7
:101CAC001B0113441B6803F004027B689A607B6879
:101CBC009B68002B0CD1FB681A68BB681B331B019B
:101CCC0013441B685B0DC3F30A027B681A600BE0BC
:101CDC00FB681A68BB681B331B0113441B68DB08C9
:101CEC0023F060427B685A60FB681A68BB681B3340
:101CFC001B0113441B6803F002027B68DA60FB686B
:101D0C001A68BB681B331B01134404331B6803F0B4
:101D1C000803002B03D07B6808221A610BE0FB68D8
:101D2C001A68BB681B331B01134404331B6803F094
:101D3C000F027B681A61FB681A68BB681B331B01B6
:101D4C00134404331B681B0ADAB27B689A61FB6884
:101D5C001A68BB681B331B01134404331B681B0C30
:101D6C009AB27B685A61FB681A68BB681B01134402
:101D7C0003F5DC731B68DAB23B681A70FB681A68EF
:101D8C00BB681B01134403F5DC731B681A0A3B6820
:101D9C000133D2B21A70FB681A68BB681B0113447A
:101DAC0003F5DC731B681A0C3B680233D2B21A7051
:101DBC00FB681A68BB681B01134403F5DC731B68D2
:101DCC001A0E3B680333D2B21A70FB681A68BB68F0
:101DDC001B01134403F5DE731A683B680433D2B25B
:101DEC001A70FB681A68BB681B01134403F5DE7399
:101DFC001B681A0A3B680533D2B21A70FB681A6862
:101E0C00BB681B01134403F5DE731B681A0C3B689B
:101E1C000633D2B21A70FB681A68BB681B011344F4
:101E2C0003F5DE731B681A0E3B680733D2B21A70C7
:101E3C00BB68002B08D1FB681B68DA68FB681B6861
:101E4C0042F02002DA6007E0FB681B681A69FB6845
:101E5C001B6842F020021A61002306E0FB685B6AF3
:101E6C0043F48022FB685A62012318461C37BD4696
:101E7C0080BC704780B485B000AF786039607B68F7
:101E8C0093F82030FB73FB7B012B02D0FB7B022BE6
:101E9C0009D17B681B6859697B681B683A680A43DF
:101EAC005A61002306E07B685B6A43F480227B68FE
:101EBC005A62012318461437BD4680BC704780B562
:101ECC008AB000AF786000237B627B681B685B691B
:101EDC003B627B681B685B68FB617B681B689B686B
:101EEC00BB617B681B68DB687B617B681B681B695B
:101EFC003B617B681B689B69FB603B6A03F00103D9
:101F0C00002B7CD0BB6903F00103002B23D07B6832
:101F1C001B6801229A60BB6903F00203002B03D0FB
:101F2C00786800F083F916E0BB6903F00403002B1A
:101F3C0004D07B6A43F400637B620CE0BB6903F062
:101F4C000803002B04D07B6A43F480537B6202E0CD
:101F5C00786800F086F9BB6903F48073002B24D0F9
:101F6C007B681B684FF480729A60BB6903F4007342
:101F7C00002B03D0786800F062F916E0BB6903F41B
:101F8C008063002B04D07B6A43F400537B620CE02B
:101F9C00BB6903F40063002B04D07B6A43F48043D9
:101FAC007B6202E0786800F065F9BB6903F480336A
:101FBC00002B24D07B681B684FF480329A60BB697D
:101FCC0003F40033002B03D0786800F041F916E0DD
:101FDC00BB6903F48023002B04D07B6A43F40043D9
:101FEC007B620CE0BB6903F40023002B04D07B6AFA
:101FFC0043F480337B6202E0786800F044F93B6A7A
:10200C0003F00803002B0CD07B6903F01003002BAA
:10201C0007D07B6A43F400737B627B681B681022D9
:10202C00DA603B6A03F00403002B0BD07B6903F0EE
:10203C000803002B06D07B681B680822DA607868DE
:10204C0000F02AF93B6A03F00203002B09D07B68ED
:10205C001B68DB6803F00303002B02D07868FEF7E3
:10206C004FFE3B6A03F04003002B0CD03B6903F09E
:10207C001003002B07D07B6A43F480637B627B6880
:10208C001B6810221A613B6A03F02003002B0BD053
:10209C003B6903F00803002B06D07B681B68082201
:1020AC001A61786800F00AF93B6A03F01003002B00
:1020BC0009D07B681B681B6903F00303002B02D05B
:1020CC00786800F0F2F83B6A03F40033002B0BD075
:1020DC00FB6903F01003002B06D07B681B681022F1
:1020EC005A60786800F0F3F83B6A03F48033002BF5
:1020FC000BD0FB6903F00803002B06D07B681B6830
:10210C0008225A60786800F0EBF83B6A03F400434D
:10211C00002B7BD0FB6903F00403002B72D03B6ACD
:10212C0003F48073002B08D0FB6803F00103002B31
:10213C0003D07B6A43F001037B623B6A03F40073B8
:10214C00002B08D0FB6803F00203002B03D07B6A42
:10215C0043F002037B623B6A03F48063002B08D0DC
:10216C00FB6803F00403002B03D07B6A43F00403E9
:10217C007B623B6A03F40063002B43D0FB6803F0E3
:10218C007003002B3ED0FB6803F07003602B2BD048
:10219C00602B2ED8502B22D0502B2AD8402B19D064
:1021AC00402B26D8302B10D0302B22D8102B02D01D
:1021BC00202B05D01DE07B6A43F008037B6219E0FD
:1021CC007B6A43F010037B6214E07B6A43F02003CC
:1021DC007B620FE07B6A43F040037B620AE07B6A20
:1021EC0043F080037B6205E07B6A43F480737B627F
:1021FC0000E000BF7B681B689A697B681B6822F053
:10220C0070029A617B681B6804225A607B6A002BFF
:10221C0008D07B685A6A7B6A1A437B685A62786872
:10222C0000F067F800BF2837BD4680BD80B483B08E
:10223C0000AF786000BF0C37BD4680BC704780B4DF
:10224C0083B000AF786000BF0C37BD4680BC7047D0
:10225C0080B483B000AF786000BF0C37BD4680BC43
:10226C00704780B483B000AF786000BF0C37BD46B8
:10227C0080BC704780B483B000AF786000BF0C376F
:10228C00BD4680BC704780B483B000AF786000BF9F
:10229C000C37BD4680BC704780B483B000AF78600B
:1022AC0000BF0C37BD4680BC704780B483B000AF14
:1022BC00786000BF0C37BD4680BC704780B483B0DB
:1022CC0000AF786000BF0C37BD4680BC704780B44F
:1022DC0083B000AF786000BF0C37BD4680BC704740
:1022EC0080B483B000AF786000BF0C37BD4680BCB3
:1022FC00704780B483B000AF786000BF0C37BD4628
:10230C0080BC704780B485B000AF78607B6803F008
:10231C000703FB600C4BDB68BB60BA684FF6FF032E
:10232C001340BB60FB681A02BB68134343F0BF63E6
:10233C0043F40033BB60044ABB68D36000BF14375E
:10234C00BD4680BC704700BF00ED00E080B400AF1C
:10235C00044BDB681B0A03F007031846BD4680BC20
:10236C00704700BF00ED00E080B483B000AF0346BF
:10237C00FB7197F90730002B0BDBFB7903F01F0285
:10238C00064997F907305B09012000FA02F241F87F
:10239C00232000BF0C37BD4680BC704700E100E035
:1023AC0080B483B000AF03463960FB7197F90730F6
:1023BC00002B0ADB3B68DAB20C4997F907301201A3
:1023CC00D2B20B4483F800230AE03B68DAB2084926
:1023DC00FB7903F00F03043B1201D2B20B441A76C3
:1023EC0000BF0C37BD4680BC704700BF00E100E069
:1023FC0000ED00E080B489B000AFF860B9607A609D
:10240C00FB6803F00703FB61FB69C3F10703042BB3
:10241C0028BF0423BB61FB690433062B02D9FB697B
:10242C00033B00E000237B614FF0FF32BB6902FAF3
:10243C0003F3DA43BB681A407B699A404FF0FF31D3
:10244C007B6901FA03F3D9437B680B4013431846AD
:10245C002437BD4680BC704780B582B000AF786031
:10246C007B68013BB3F1807F01D301230FE00A4A63
:10247C007B68013B53600F214FF0FF30FFF790FF5B
:10248C00054B00229A60044B07221A600023184661
:10249C000837BD4680BD00BF10E000E080B582B0BB
:1024AC0000AF78607868FFF72DFF00BF0837BD4696
:1024BC0080BD80B586B000AF0346B9607A60FB730F
:1024CC0000237B61FFF742FF78617A68B96878690D
:1024DC00FFF790FF024697F90F3011461846FFF7A9
:1024EC005FFF00BF1837BD4680BD80B582B000AF1E
:1024FC000346FB7197F907301846FFF735FF00BF0D
:10250C000837BD4680BD80B582B000AF7860786872
:10251C00FFF7A2FF034618460837BD4680BD0000F2
:10252C0080B48BB000AF7860396000237B620023ED
:10253C003B6269E101227B6A02FA03F3FB613B68AF
:10254C001B68FA691340BB61BA69FB699A4240F097
:10255C0058813B685B689A4A93425ED0984A934292
:10256C0075D8984A934258D0964A93426FD8964A57
:10257C00934252D0944A934269D8944A93424CD095
:10258C00924A934263D8924A934246D0904A9342DD
:10259C005DD8122B2AD8122B59D801A252F823F04D
:1025AC0027260008012600081326000855260008D7
:1025BC005B2600085B2600085B2600085B260008EB
:1025CC005B2600085B2600085B2600085B260008DB
:1025DC005B2600085B2600085B2600085B260008CB
:1025EC005B260008092600081D260008794A93423C
:1025FC0013D02CE03B68DB683B6229E03B68DB686E
:10260C0004333B6224E03B68DB6808333B621FE029
:10261C003B68DB680C333B621AE03B689B68002B21
:10262C0002D104233B6213E03B689B68012B05D16C
:10263C0008233B627B68FA691A6109E008233B6254
:10264C007B68FA695A6103E000233B6200E000BF3B
:10265C00BB69FF2B01D87B6801E07B6804337B618D
:10266C00BB69FF2B02D87B6A9B0002E07B6A083BAC
:10267C009B003B617B691A680F213B6901FA03F3EC
:10268C00DB431A40396A3B6901FA03F31A437B694D
:10269C001A603B685B6803F08053002B00F0B1803C
:1026AC004D4B9B694C4A43F0010393614A4B9B6928
:1026BC0003F00103BB60BB68484A7B6A9B0802338A
:1026CC0052F82330FB607B6A03F003039B000F225C
:1026DC0002FA03F3DB43FA681340FB607B68404A61
:1026EC00934213D07B683F4A93420DD07B683E4A9D
:1026FC00934207D07B683D4A934201D1032306E005
:10270C00042304E0022302E0012300E000237A6AA0
:10271C0002F0030292009340FA681343FB602F49C6
:10272C007B6A9B080233FA6841F823203B685B689C
:10273C0003F48013002B06D02D4B9A682C49BB69EF
:10274C0013438B6006E02A4B9A68BB69DB4328492C
:10275C0013408B603B685B6803F40013002B06D0BE
:10276C00234BDA682249BB691343CB6006E0204B4C
:10277C00DA68BB69DB431E491340CB603B685B687E
:10278C0003F40033002B06D0194B5A681849BB6967
:10279C0013434B6006E0164B5A68BB69DB43144984
:1027AC0013404B603B685B6803F48033002B21D0F3
:1027BC000F4B1A680E49BB6913430B6021E000BF35
:1027CC000000321000003110000022100000211017
:1027DC000000121000001110001002400000014017
:1027EC0000080140000C01400010014000140140A1
:1027FC00000401400B4B1A68BB69DB4309491340C9
:10280C000B607B6A01337B623B681A687B6A22FA35
:10281C0003F3002B7FF48EAE00BF00BF2C37BD46F8
:10282C0080BC70470004014080B483B000AF786076
:10283C000B467B8013467B707B78002B03D07A8809
:10284C007B681A6103E07B881A047B681A6100BFFD
:10285C000C37BD4680BC704780B586B000AF786041
:10286C007B68002B01D1012372E27B681B6803F0AB
:10287C000103002B00F08780924B5B6803F00C0384
:10288C00042B0CD08F4B5B6803F00C03082B12D17C
:10289C008C4B5B6803F48033B3F5803F0BD1894BD1
:1028AC001B6803F40033002B6CD07B685B68002B37
:1028BC0068D101234CE27B685B68B3F5803F06D19D
:1028CC00804B1B687F4A43F4803313602EE07B6897
:1028DC005B68002B0CD17B4B1B687A4A23F480334A
:1028EC001360784B1B68774A23F4802313601DE038
:1028FC007B685B68B3F5A02F0CD1724B1B68714AD7
:10290C0043F4802313606F4B1B686E4A43F480338F
:10291C0013600BE06B4B1B686A4A23F48033136023
:10292C00684B1B68674A23F4802313607B685B68E1
:10293C00002B13D0FEF778FE386108E0FEF774FE2A
:10294C0002463B69D31A642B01D9032300E25D4B89
:10295C001B6803F40033002BF0D014E0FEF764FE88
:10296C00386108E0FEF760FE02463B69D31A642B1F
:10297C0001D90323ECE1534B1B6803F40033002B08
:10298C00F0D100E000BF7B681B6803F00203002B52
:10299C0063D04C4B5B6803F00C03002B0BD0494B02
:1029AC005B6803F00C03082B1CD1464B5B6803F4EB
:1029BC008033002B16D1434B1B6803F00203002B12
:1029CC0005D07B681B69012B01D00123C0E13D4B75
:1029DC001B6823F0F8027B685B69DB003949134301
:1029EC000B603AE07B681B69002B20D0364B012230
:1029FC001A60FEF719FE386108E0FEF715FE024674
:102A0C003B69D31A022B01D90323A1E12D4B1B687F
:102A1C0003F00203002BF0D02A4B1B6823F0F802C2
:102A2C007B685B69DB00274913430B6015E0264B81
:102A3C0000221A60FEF7F8FD386108E0FEF7F4FD9D
:102A4C0002463B69D31A022B01D9032380E11D4BAB
:102A5C001B6803F00203002BF0D17B681B6803F0AA
:102A6C000803002B3AD07B689B69002B19D0174BBD
:102A7C0001221A60FEF7D8FD386108E0FEF7D4FD9C
:102A8C0002463B69D31A022B01D9032360E10D4B9B
:102A9C005B6A03F00203002BF0D0012000F0CEFAA9
:102AAC001CE00A4B00221A60FEF7BEFD38610FE0F5
:102ABC00FEF7BAFD02463B69D31A022B08D9032351
:102ACC0046E100BF00100240000042428004424236
:102ADC00924B5B6A03F00203002BE9D17B681B6805
:102AEC0003F00403002B00F0A6800023FB758B4B36
:102AFC00DB6903F08053002B0DD1884BDB69874ACF
:102B0C0043F08053D361854BDB6903F08053BB608A
:102B1C00BB680123FB75824B1B6803F48073002B8D
:102B2C0018D17F4B1B687E4A43F480731360FEF709
:102B3C007BFD386108E0FEF777FD02463B69D31A4E
:102B4C00642B01D9032303E1754B1B6803F48073D9
:102B5C00002BF0D07B68DB68012B06D16F4B1B6A16
:102B6C006E4A43F0010313622DE07B68DB68002B97
:102B7C000CD16A4B1B6A694A23F001031362674B41
:102B8C001B6A664A23F0040313621CE07B68DB6853
:102B9C00052B0CD1614B1B6A604A43F00403136292
:102BAC005E4B1B6A5D4A43F0010313620BE05B4B07
:102BBC001B6A5A4A23F001031362584B1B6A574A8B
:102BCC0023F0040313627B68DB68002B15D0FEF73F
:102BDC002BFD38610AE0FEF727FD02463B69D31A4C
:102BEC0041F28832934201D90323B1E04B4B1B6A6B
:102BFC0003F00203002BEED014E0FEF715FD386154
:102C0C000AE0FEF711FD02463B69D31A41F2883205
:102C1C00934201D903239BE0404B1B6A03F0020350
:102C2C00002BEED1FB7D012B05D13C4BDB693B4AE4
:102C3C0023F08053D3617B68DB69002B00F0878025
:102C4C00364B5B6803F00C03082B61D07B68DB69A7
:102C5C00022B46D1334B00221A60FEF7E5FC38619B
:102C6C0008E0FEF7E1FC02463B69D31A022B01D9BE
:102C7C0003236DE0294B1B6803F00073002BF0D18C
:102C8C007B681B6AB3F5803F08D1244B5B6823F447
:102C9C0000327B689B68214913434B601F4B5B6878
:102CAC0023F474127B68196A7B685B6A0B431B49BB
:102CBC0013434B601B4B01221A60FEF7B5FC3861C5
:102CCC0008E0FEF7B1FC02463B69D31A022B01D98E
:102CDC0003233DE0114B1B6803F00073002BF0D075
:102CEC0035E0104B00221A60FEF79EFC386108E0BC
:102CFC00FEF79AFC02463B69D31A022B01D9032337
:102D0C0026E0064B1B6803F00073002BF0D11EE08D
:102D1C007B68DB69012B07D1012319E0001002400D
:102D2C0000700040600042420B4B5B68FB60FB682C
:102D3C0003F480327B681B6A9A4206D1FB6803F469
:102D4C0070127B685B6A9A4201D0012300E0002379
:102D5C0018461837BD4680BD0010024080B584B0BF
:102D6C0000AF786039607B68002B01D10123D0E083
:102D7C006A4B1B6803F007033A689A4210D9674BF9
:102D8C001B6823F0070265493B6813430B60634BD8
:102D9C001B6803F007033A689A4201D00123B8E09C
:102DAC007B681B6803F00203002B20D07B681B6838
:102DBC0003F00403002B05D0594B5B68584A43F4CD
:102DCC00E06353607B681B6803F00803002B05D09D
:102DDC00534B5B68524A43F460535360504B5B68EF
:102DEC0023F0F0027B689B684D4913434B607B6872
:102DFC001B6803F00103002B40D07B685B68012B40
:102E0C0007D1474B1B6803F40033002B15D101236A
:102E1C007FE07B685B68022B07D1414B1B6803F09A
:102E2C000073002B09D1012373E03D4B1B6803F0A9
:102E3C000203002B01D101236BE0394B5B6823F0BB
:102E4C0003027B685B68364913434B60FEF7ECFB6F
:102E5C00F8600AE0FEF7E8FB0246FB68D31A41F281
:102E6C008832934201D9032353E02D4B5B6803F066
:102E7C000C027B685B689B009A42EBD1274B1B686A
:102E8C0003F007033A689A4210D2244B1B6823F0D4
:102E9C00070222493B6813430B60204B1B6803F06D
:102EAC0007033A689A4201D0012332E07B681B6821
:102EBC0003F00403002B08D0194B5B6823F4E06289
:102ECC007B68DB68164913434B607B681B6803F017
:102EDC000803002B09D0124B5B6823F460527B680B
:102EEC001B69DB000E4913434B6000F021F80246CE
:102EFC000B4B5B681B0903F00F030A49CB5C22FAEE
:102F0C0003F3094A1360094B1B681846FEF74AFB8A
:102F1C00002318461037BD4680BD00BF002002407C
:102F2C0000100240EC4D00080000002004000020BE
:102F3C0080B487B000AF0023FB600023BB6000238C
:102F4C007B6100237B6000233B611E4B5B68FB6055
:102F5C00FB6803F00C03042B02D0082B03D027E0F2
:102F6C00194B3B6127E0FB689B0C03F00F03174ADE
:102F7C00D35C7B60FB6803F48033002B10D0114BC7
:102F8C005B685B0C03F00103114AD35CBB607B688C
:102F9C000D4A03FB02F2BB68B2FBF3F37B6104E066
:102FAC007B680C4A02FB03F37B617B693B6102E0AB
:102FBC00054B3B6100BF3B6918461C37BD4680BCC6
:102FCC00704700BF0010024000127A00044E000847
:102FDC00144E000800093D0080B400AF024B1B6882
:102FEC001846BD4680BC70470000002080B500AF7D
:102FFC00FFF7F2FF0246054B5B681B0A03F0070361
:10300C000349CB5C22FA03F3184680BD0010024042
:10301C00FC4D000880B500AFFFF7DEFF0246054B04
:10302C005B68DB0A03F007030349CB5C22FA03F36A
:10303C00184680BD00100240FC4D000880B485B0DD
:10304C0000AF78600A4B1B680A4AA2FB03235B0A99
:10305C007A6802FB03F3FB6000BFFB685A1EFA6040
:10306C00002BF9D100BF00BF1437BD4680BC7047A0
:10307C0000000020D34D621080B582B000AF7860A4
:10308C007B68002B01D1012341E07B6893F83D3034
:10309C00DBB2002B06D17B68002283F83C207868D9
:1030AC00FEF746F97B68022283F83D207B681A689C
:1030BC007B6804331946104600F08AFA7B680122BB
:1030CC0083F846207B68012283F83E207B6801222E
:1030DC0083F83F207B68012283F840207B68012223
:1030EC0083F841207B68012283F842207B6801220F
:1030FC0083F843207B68012283F844207B680122FB
:10310C0083F845207B68012283F83D200023184674
:10311C000837BD4680BD000080B485B000AF786034
:10312C007B6893F83D30DBB2012B01D001233AE0F0
:10313C007B68022283F83D207B681B68DA687B6819
:10314C001B6842F00102DA607B681B68184A9342E4
:10315C000ED07B681B68B3F1804F09D07B681B686D
:10316C00144A934204D07B681B68134A934211D1D2
:10317C007B681B689B6803F00703FB60FB68062BEE
:10318C0010D07B681B681A687B681B6842F00102D0
:10319C001A6007E07B681B681A687B681B6842F042
:1031AC0001021A60002318461437BD4680BC7047D4
:1031BC00002C0140000400400008004080B483B0A3
:1031CC0000AF78607B681B68DA687B681B6822F04C
:1031DC000102DA607B681B681A6A41F21113134012
:1031EC00002B0FD17B681B681A6A40F244431340D2
:1031FC00002B07D17B681B681A687B681B6822F060
:10320C0001021A607B68012283F83D2000231846D6
:10321C000C37BD4680BC704780B584B000AF786079
:10322C007B681B68DB68FB607B681B681B69BB6089
:10323C00BB6803F00203002B20D0FB6803F00203F1
:10324C00002B1BD07B681B686FF002021A617B6835
:10325C0001221A777B681B689B6903F00303002B20
:10326C0003D0786800F098F905E0786800F08BF9E5
:10327C00786800F09AF97B6800221A77BB6803F033
:10328C000403002B20D0FB6803F00403002B1BD09D
:10329C007B681B686FF004021A617B6802221A7744
:1032AC007B681B689B6903F44073002B03D0786820
:1032BC0000F072F905E0786800F065F9786800F0C4
:1032CC0074F97B6800221A77BB6803F00803002BA3
:1032DC0020D0FB6803F00803002B1BD07B681B6815
:1032EC006FF008021A617B6804221A777B681B68EE
:1032FC00DB6903F00303002B03D0786800F04CF972
:10330C0005E0786800F03FF9786800F04EF97B68CA
:10331C0000221A77BB6803F01003002B20D0FB6847
:10332C0003F01003002B1BD07B681B686FF010029E
:10333C001A617B6808221A777B681B68DB6903F4C7
:10334C004073002B03D0786800F026F905E078680C
:10335C0000F019F9786800F028F97B6800221A77D8
:10336C00BB6803F00103002B0CD0FB6803F00103D6
:10337C00002B07D07B681B686FF001021A6178681C
:10338C00FDF7FAFEBB6803F08003002B0CD0FB6842
:10339C0003F08003002B07D07B681B686FF0800262
:1033AC001A61786800F07FFABB6803F04003002BC9
:1033BC000CD0FB6803F04003002B07D07B681B6824
:1033CC006FF040021A61786800F0F8F8BB6803F0FF
:1033DC002003002B0CD0FB6803F02003002B07D03C
:1033EC007B681B686FF020021A61786800F052FA53
:1033FC0000BF1037BD4680BD80B584B000AF78608B
:10340C0039600023FB737B6893F83C30012B01D1AE
:10341C000223B4E07B68012283F83C207B68022203
:10342C0083F83D207B681B689B68BB60BB6823F0FE
:10343C007703BB60BB6823F47F43BB607B681B686E
:10344C00BA689A603B681B68B3F5005F3ED0B3F571
:10345C00005F00F28780B3F5805F00F08680B3F5E3
:10346C00805F7FD8702B1AD0702B7BD8602B50D0FC
:10347C00602B77D8502B3CD0502B73D8402B58D086
:10348C00402B6FD8302B64D0302B6BD8202B60D0D6
:10349C00202B67D8002B5CD0102B5AD062E07B68B5
:1034AC0018683B6899683B685A683B68DB6800F0B1
:1034BC0074F97B681B689B68BB60BB6843F077033F
:1034CC00BB607B681B68BA689A604FE07B681868C1
:1034DC003B6899683B685A683B68DB6800F05DF9AB
:1034EC007B681B689A687B681B6842F480429A6010
:1034FC003CE07B6818683B6859683B68DB681A4697
:10350C0000F0D4F87B681B685021184600F02BF9AA
:10351C002CE07B6818683B6859683B68DB681A4686
:10352C0000F0F2F87B681B686021184600F01BF96C
:10353C001CE07B6818683B6859683B68DB681A4676
:10354C0000F0B4F87B681B684021184600F00BF9BA
:10355C000CE07B681A683B681B681946104600F043
:10356C0002F903E00123FB7300E000BF7B6801223A
:10357C0083F83D207B68002283F83C20FB7B1846B7
:10358C001037BD4680BD80B483B000AF786000BFFB
:10359C000C37BD4680BC704780B483B000AF7860F8
:1035AC0000BF0C37BD4680BC704780B483B000AF01
:1035BC00786000BF0C37BD4680BC704780B483B0C8
:1035CC0000AF786000BF0C37BD4680BC7047000070
:1035DC0080B485B000AF786039607B681B68FB6095
:1035EC007B682F4A93420BD07B68B3F1804F07D096
:1035FC007B682C4A934203D07B682B4A934208D1B8
:10360C00FB6823F07003FB603B685B68FA6813434C
:10361C00FB607B68224A93420BD07B68B3F1804FEE
:10362C0007D07B681F4A934203D07B681E4A9342A3
:10363C0008D1FB6823F44073FB603B68DB68FA68D5
:10364C001343FB60FB6823F080023B685B69134308
:10365C00FB607B68FA681A603B689A687B68DA6280
:10366C003B681A687B689A627B680D4A934203D167
:10367C003B681A697B681A637B6801225A617B6814
:10368C001B6903F00103002B05D07B681B6923F039
:10369C0001027B681A6100BF1437BD4680BC7047BD
:1036AC00002C0140000400400008004080B487B0AA
:1036BC0000AFF860B9607A60FB681B6A7B61FB68DD
:1036CC001B6A23F00102FB681A62FB689B693B6171
:1036DC003B6923F0F0033B617B681B013A691343A0
:1036EC003B617B6923F00A037B617A69BB681343F6
:1036FC007B61FB683A699A61FB687A691A6200BF60
:10370C001C37BD4680BC704780B487B000AFF860F2
:10371C00B9607A60FB681B6A7B61FB681B6A23F0EB
:10372C001002FB681A62FB689B693B613B6923F4DE
:10373C0070433B617B681B033A6913433B617B69B4
:10374C0023F0A0037B61BB681B017A6913437B6187
:10375C00FB683A699A61FB687A691A6200BF1C3788
:10376C00BD4680BC704780B485B000AF78603960CE
:10377C007B689B68FB60FB6823F07003FB603A6816
:10378C00FB68134343F00703FB607B68FA689A609D
:10379C0000BF1437BD4680BC704780B487B000AF03
:1037AC00F860B9607A603B60FB689B687B617B6901
:1037BC0023F47F437B613B681A027B681A43BB6826
:1037CC0013437A6913437B61FB687A699A6000BF83
:1037DC001C37BD4680BC704780B485B000AF7860A4
:1037EC0039607B6893F83C30012B01D1022346E011
:1037FC007B68012283F83C207B68022283F83D2001
:10380C007B681B685B68FB607B681B689B68BB60A4
:10381C00FB6823F07003FB603B681B68FA6813437A
:10382C00FB607B681B68FA685A607B681B68164AE9
:10383C0093420ED07B681B68B3F1804F09D07B6834
:10384C001B68124A934204D07B681B68104A93424F
:10385C000CD1BB6823F08003BB603B685B68BA6823
:10386C001343BB607B681B68BA689A607B68012253
:10387C0083F83D207B68002283F83C200023184607
:10388C001437BD4680BC7047002C0140000400403A
:10389C000008004080B483B000AF786000BF0C37E4
:1038AC00BD4680BC704780B483B000AF786000BF69
:1038BC000C37BD4680BC704780B582B000AF7860D5
:1038CC007B68002B01D1012342E07B6893F84130E7
:1038DC00DBB2002B06D17B68002283F8402078688D
:1038EC00FDF74AFD7B68242283F841207B681B6826
:1038FC00DA687B681B6822F40052DA60786800F0A2
:10390C0071F97B681B681A697B681B6822F490420A
:10391C001A617B681B685A697B681B6822F02A0253
:10392C005A617B681B68DA687B681B6842F400523A
:10393C00DA607B6800225A647B68202283F841207D
:10394C007B68202283F842207B6800225A63002384
:10395C0018460837BD4680BD80B58AB002AFF86006
:10396C00B9603B601346FB8000237B61FB6893F8D6
:10397C004130DBB2202B75D1BB68002B02D0FB8809
:10398C00002B01D101236EE0FB6800225A64FB6816
:10399C00212283F84120FDF747FE7861FB68FA8805
:1039AC009A84FB68FA88DA84FB689B68B3F5805FBD
:1039BC0008D1FB681B69002B04D10023FB61BB6899
:1039CC00BB6103E0BB68FB610023BB612EE03B687D
:1039DC0000937B6900228021F86800F048F80346C8
:1039EC00002B05D0FB68202283F8412003233AE00A
:1039FC00FB69002B0BD1BB691B881A46FB681B6843
:103A0C00C2F308025A60BB690233BB6107E0FB6971
:103A1C001A78FB681B685A60FB690133FB61FB6811
:103A2C00DB8C9BB2013B9AB2FB68DA84FB68DB8CC3
:103A3C009BB2002BCBD13B6800937B6900224021C9
:103A4C00F86800F014F80346002B05D0FB68202220
:103A5C0083F84120032306E0FB68202283F84120F1
:103A6C00002300E0022318462037BD4680BD80B5F8
:103A7C0086B000AFF860B9603B601346FB713BE069
:103A8C003B6AB3F1FF3F37D0FDF7CEFD02463B68F2
:103A9C00D31A3A6A9A4202D33B6A002B01D1032310
:103AAC003AE0FB681B68DB6803F00403002B23D0AF
:103ABC00BB68802B20D0BB68402B1DD0FB681B68DB
:103ACC001B6803F00803082B16D100237B61FB68ED
:103ADC001B681B687B61FB681B685B687B617B698F
:103AEC00F86800F01DF8FB6808225A64FB68002295
:103AFC0083F8402001230FE0FB681B681A68BB6841
:103B0C001340BA689A420CBF01230023DBB21A4659
:103B1C00FB799A42B4D0002318461837BD4680BDB5
:103B2C0080B495B000AF78607B681B680C337B6306
:103B3C007B6B53E8003F3B633B6B23F49073FB645C
:103B4C007B681B680C33FA6C3A64FB63F96B3A6C58
:103B5C0041E80023BB63BB6B002BE5D17B681B6882
:103B6C0014333B623B6A53E8003FFB61FB6923F073
:103B7C000103BB647B681B681433BA6CFA62BB62CA
:103B8C00B96AFA6A41E800237B627B6A002BE5D1B3
:103B9C007B681B6B012B19D17B681B680C33FB609A
:103BAC00FB6853E8003FBB60BB6823F010037B64E9
:103BBC007B681B680C337A6CBA617B617969BA6972
:103BCC0041E800233B613B69002BE5D17B68202257
:103BDC0083F842207B6800221A6300BF5437BD462D
:103BEC0080BC704780B584B000AF78607B681B6880
:103BFC001B6923F440517B68DA687B681B680A43B5
:103C0C001A617B689A687B681B691A437B685B69DD
:103C1C001343BB607B681B68DB6823F4B05323F051
:103C2C000C037A681268B9680B43D3607B681B6815
:103C3C005B6923F440717B689A697B681B680A4353
:103C4C005A617B681B682C4A934203D1FFF7E2F957
:103C5C00F86002E0FFF7CAF9F860FA6813469B00B7
:103C6C0013449A001A447B685B689B00B2FBF3F325
:103C7C00224AA2FB03235B091901FA6813469B0035
:103C8C0013449A001A447B685B689B00B2FBF3F206
:103C9C001A4BA3FB02035B09642000FB03F3D31A4A
:103CAC001B013233154AA2FB03235B0903F0F0031B
:103CBC001944FA6813469B0013449A001A447B6813
:103CCC005B689B00B2FBF3F20C4BA3FB02035B099A
:103CDC00642000FB03F3D31A1B013233074AA2FB07
:103CEC0003235B0903F00F027B681B680A449A608C
:103CFC0000BF1037BD4680BD003801401F85EB5119
:103D0C000CB430B5184B0C1E1D689DB008DA8B2313
:103D1C004FF0FF302B601DB0BDE8304002B0704753
:103D2C004FF40273ADF814304FF000031B930CBF2B
:103D3C00234604F1FF33049307934FF6FF7302906D
:103D4C000690ADF81630284621AB209A02A90193B3
:103D5C0000F0A0F9431CBCBF8B232B60002CDAD0E5
:103D6C000022029B1A70D6E70C0000200346024486
:103D7C00934200D1704703F8011BF9E7014B186817
:103D8C00704700BF0C00002070B500260C4D0D4C88
:103D9C00641BA410A64209D100F076FC00260A4D43
:103DAC000A4C641BA410A64205D170BD55F8043B07
:103DBC0098470136EEE755F8043B98470136F2E791
:103DCC00544E0008544E0008544E0008584E00083B
:103DDC00704770470A44914200F1FF3300D170479D
:103DEC0010B511F8014B914203F8014FF9D110BDF8
:103DFC0038B50546002940D051F8043C0C1F002B67
:103E0C00B8BFE41800F0DEF81C4A136833B96360DD
:103E1C0014602846BDE8384000F0DAB8A34208D94F
:103E2C00206821188B4201BF19685B680918216052
:103E3C00EDE71A465B680BB1A342FAD9116850182A
:103E4C00A0420BD120680144501883421160E0D18C
:103E5C0018685B68084410605360DAE702D90C23D9
:103E6C002B60D6E7206821188B4201BF19685B686C
:103E7C000918216063605460CBE738BDAC0B00209F
:103E8C0070B50F4E0C463168054611B900F0A8FB11
:103E9C0030602146284600F0A3FB431C03D14FF0B1
:103EAC00FF34204670BDC41C24F00304A042F8D09B
:103EBC00211A284600F094FB0130F2D1EFE700BF45
:103ECC00A80B00202DE9F843CD1C25F0030508357F
:103EDC000C2D38BF0C25002D064601DBA94204D958
:103EEC000C2333600020BDE8F883DFF8D48000F0A9
:103EFC0069F8D8F800301C4644BB29463046FFF719
:103F0C00BFFF431C044658D1D8F800402746002F69
:103F1C0043D1002C4BD023683946304604EB0309BF
:103F2C0000F05EFB814542D1216830466D1A29466E
:103F3C00FFF7A6FF01303AD023682B442360D8F852
:103F4C0000305A6862BBC8F800700FE02268521B40
:103F5C0020D40B2A17D96119A342256018BF5960C8
:103F6C00636808BFC8F8001062514B60304600F01F
:103F7C002FF804F10B00231D20F00700C21A1CBF00
:103F8C001B1AA350AFE76268A3420CBFC8F800200D
:103F9C005A60EBE723466468AEE73C467F68B6E7B9
:103FAC001A465B68A342FBD100235360DEE70C2367
:103FBC003046336000F00CF894E70560D6E700BF9C
:103FCC00AC0B00200148FFF703BF00BFA40B00207F
:103FDC000148FFF7FEBE00BFA40B00202DE9F047FF
:103FEC001F468E688246BE420C4690460B682DD802
:103FFC00B1F90C2012F4906F26D06569096905EBB4
:10400C004505A3EB010905EBD5757B1C4B446D10E5
:10401C009D4238BF1D46530527D52946FFF752FF51
:10402C00064660B34A462169FFF7D4FEA38923F400
:10403C00906343F08003A38126614E4426603E4684
:10404C006561A5EB0905A560BE4200D93E46324626
:10405C004146206800F0AAFA0020A3689B1BA360CD
:10406C00236833442360BDE8F0872A4600F0D6FA73
:10407C0006460028E0D150462169FFF7B9FE0C2313
:10408C00CAF80030A3894FF0FF3043F04003A381FE
:10409C00E9E700002DE9F04F98468B8907461B068F
:1040AC000D4614469DB010D50B6973B94021FFF72E
:1040BC0009FF2860286130B90C233B604FF0FF30BA
:1040CC001DB0BDE8F08F40236B61002309932023C2
:1040DC008DF8293030234FF00109CDF80C80DFF832
:1040EC0098818DF82A3023469A4613F8012B0AB191
:1040FC00252AF9D1BAEB040B0BD05B462246294694
:10410C003846FFF76BFF013000F0A780099A5A443C
:10411C0009929AF80030002B00F09F8000234FF09A
:10412C00FF32CDE905230AF1010A049307938DF8B8
:10413C0053301A935446052214F8011B4E4800F0D4
:10414C005FFA049AD8B9D00644BF20238DF85330B7
:10415C00110744BF2B238DF853309AF800302A2BCB
:10416C0015D0544600204FF00A0C079A214611F83E
:10417C00013B303B092B4BD9B0B1079214E0A0EBBB
:10418C00080309FA03F31343A2460493D2E7039BF3
:10419C00191D1B680391002BBBBF5B4242F002024E
:1041AC0007930793B8BF049223782E2B0AD1637818
:1041BC002A2B32D1039B02341A1D1B68039243EA4B
:1041CC00E3730593DFF8B4A003225046217800F086
:1041DC0017FA38B14022049BA0EB0A00824013432B
:1041EC000134049314F8011B062225488DF828107D
:1041FC0000F006FA002836D0224B1BBB039B07337A
:10420C0023F0070308330393099B334409936AE7AC
:10421C000C4601200CFB0232A8E700234FF00A0CDD
:10422C00194601340593204610F8012B303A092A1F
:10423C0003D9002BC6D00591C4E7044601230CFB1F
:10424C000121F0E703AB00932A4638460E4B04A934
:10425C00AFF30080421C0646D6D1AB895B063FF516
:10426C002DAF09982CE703AB00932A463846064B32
:10427C0004A900F07DF8EDE7164E00081C4E00086E
:10428C00204E000800000000E93F00082DE9F0472F
:10429C00164698468A680B6907469342B8BF134680
:1042AC00336091F843200C46DDF820900AB10133BD
:1042BC0033602368990642BF336802333360256844
:1042CC0015F0060506D104F1190AE36832689B1A49
:1042DC00AB422BDC94F843302268003B18BF01231F
:1042EC00920630D44146384604F14302C8470130A7
:1042FC0023D02368226903F00603042B14BF002586
:10430C0033684FF0000608BFE56804F11A0408BFD3
:10431C00ED1A54F8123C08BF25EAE5759342C4BF68
:10432C009B1AED18B5421AD1002008E00123524621
:10433C0041463846C847013003D14FF0FF30BDE845
:10434C00F0870135C1E73020E11881F843005A1C91
:10435C0094F845102244023382F84310C2E701233B
:10436C00224641463846C8470130E6D00136D9E7E7
:10437C002DE9FF470F7E9146782F80460C469A46D2
:10438C000C9E01F1430207D8622F0AD8002F00F0CF
:10439C00D180582F00F0B88004F1420684F84270A6
:1043AC003AE0A7F16303152BF6D801A151F823F0DD
:1043BC001544000829440008A5430008A54300083B
:1043CC00A5430008A543000829440008A54300089C
:1043DC00A5430008A5430008A5430008274500088D
:1043EC0053440008E1440008A5430008A543000815
:1043FC0049450008A543000853440008A54300089C
:10440C00A5430008E944000833681A1D1B68326094
:10441C0004F1420684F8423001239CE033682068A2
:10442C00191D3160060601D51D6803E04506FBD554
:10443C00B3F90050002D03DA2D236D4284F843307C
:10444C000A23584811E021683368080653F8045BC6
:10445C0002D4490648BFADB26F2F336014BF0A2394
:10446C0008235048002184F843106668002EA6608B
:10447C0005DB21682E4321F0040121604BD0164648
:10448C00B5FBF3F103FB1157C75D06F8017D2F4611
:10449C00BB420D46F4D9082B0BD12368DF0708D596
:1044AC00236961689942DEBF302306F8013C06F1AE
:1044BC00FF36921B22614B4621464046CDF800A0A8
:1044CC0003AAFFF7E3FE01304AD14FF0FF3004B0EE
:1044DC00BDE8F087236843F0200323607827324837
:1044EC0084F84570236831681F0651F8045B02D4C8
:1044FC005F0648BFADB23160D90744BF43F020031B
:10450C0023601DB11023ADE72648E9E7236823F0AB
:10451C0020032360F6E71646BDE733682568181DAF
:10452C00616930602E061B6801D5196002E06806CF
:10453C00FBD51980002316462361BCE733680021A4
:10454C001A1D32601E686268304600F059F808B1D6
:10455C00801B606063682361002384F84330AAE702
:10456C003246494640462369D0470130ADD02368D6
:10457C009B0713D4E068039B9842B8BF1846A6E784
:10458C000123324649464046D04701309DD0013583
:10459C00E36803995B1AAB42F2DCEBE7002504F10C
:1045AC001906F5E7274E0008384E0008884210B56A
:1045BC0001EB020402D98442234607D8431EA142D0
:1045CC0008D011F8012B03F8012FF8E7014602443B
:1045DC008A4200D110BD13F8014D02F8014DF7E7E6
:1045EC0038B50023054D044608462B60FCF762FFE6
:1045FC00431C02D12B6803B1236038BDA00B0020F3
:10460C00034610B5C9B202449342184601D10020AA
:10461C0003E0047801338C42F6D110BD2DE9F04152
:10462C00074614460D4621B91146BDE8F041FFF787
:10463C0049BC2AB9FFF7DCFB25462846BDE8F081CA
:10464C0000F01AF88442064602D8B4EB500FF4D8A6
:10465C0021463846FFF736FC804608B94546ECE75C
:10466C00B4422246294628BF3246FFF7B3FB2946FF
:10467C003846FFF7BDFBF1E751F8043C181F002B3F
:10468C00BCBF0B58C0187047F8B500BFF8BC08BCCD
:10469C009E467047F8B500BFF8BC08BC9E467047F4
:1046AC0025730D0A000000005B434F425D205374DC
:1046BC006174653A20494E495420E28692204E4D51
:1046CC00545F53454E5400005B434F425D2057618D
:1046DC006974696E6720666F722065787465726E96
:1046EC00616C2053444F20496E697420286D6169B8
:1046FC006E2E6329000000005B434F425D20537413
:10470C006174653A2053444F5F434F4E4649524DB6
:10471C00454420E286922050444F5F414354495611
:10472C00450000005B434F425D2053746174653A51
:10473C00204552524F520000434F425F4469737000
:10474C00617463683A2049443D3078253033580011
:10475C0053594E43206672616D65207265636569BD
:10476C0076656400547853444F20726563656976AE
:10477C00656400005B434F425D2053444F20636FE0
:10478C006E6669726D656420E286922053444F5FB9
:10479C00434F4E4649524D4544000000556E6B6EDA
:1047AC006F776E20434F422D494400005B434F42CC
:1047BC005D20456E61626C696E672053594E4320D3
:1047CC0061667465722053444F20496E69742E2EB5
:1047DC002E0000005B434F425D2053797374656D6E
:1047EC00206973206E6F77204F5045524154494FCA
:1047FC004E414C004865617274626561742066724A
:10480C006F6D204E6F64652025753A20737461744A
:10481C006520307825303258000000005B434F4251
:10482C005D20486561727462656174204F4B20E2B3
:10483C008692204E4D545F434F4E4649524D45444F
:10484C00000000005374617465206368616E6765D5
:10485C00643A202564202D3E202564004163746950
:10486C00766174696F6E20636F6D6D616E64207319
:10487C00656E64206661696C6564000041637469EF
:10488C00766174696F6E20636F6D6D616E6420303C
:10489C0078313020307831302073656E7400000030
:1048AC0054696D656F75742077616974696E6720E2
:1048BC00666F722061637469766174696F6E2063D0
:1048CC006F6E6669726D6174696F6E0041637469B5
:1048DC00766174696F6E20636F6E6669726D656464
:1048EC0020627920776865656C202841412042421E
:1048FC00290000004E4D5420636F6D6D616E642075
:10490C003078253032582073656E7420746F204EC9
:10491C006F64652025752C204D61696C626F783D44
:10492C00256C75004E4D542073656E64206661696C
:10493C006C65640041637469766174696F6E207292
:10494C006573706F6E7365207265636569766564F7
:10495C003A205B41412C2042425D000043414E6FA6
:10496C0070656E20636F6E6669726D6174696F6ECF
:10497C002072656365697665643A205B37465D0035
:10498C004865617274626561742066726F6D204E49
:10499C006F64652025753A207374617465203078D6
:1049AC00253032580000000053656E64696E672034
:1049BC006272616B652072656C6561736520746FE2
:1049CC00206E6F646520257500000000E29AA0201F
:1049DC004661696C656420746F2073656E64206237
:1049EC0072616B652072656C656173650000000017
:1049FC00E29C85204272616B652072656C65617307
:104A0C006520636F6D6D616E642073656E7400005C
:104A1C002F5820000300000050444F31204E6F648B
:104A2C00652025753A202530325820253032582003
:104A3C00253032582025303258000000E29C852069
:104A4C005250444F20537065656420636F6E6669E5
:104A5C0067204F4B00000000E29D8C205250444FC9
:104A6C0020537065656420636F6E666967204641EC
:104A7C00494C0000F09F9481205374617274696EEC
:104A8C0067205250444F2046534D20616374697621
:104A9C006174696F6E2E2E2E000000002020E286BD
:104AAC0092205250444F20537465702025643A2054
:104ABC003078253034580000E29C85205250444F09
:104ACC002046534D20636F6D706C6574650000005B
:104ADC008000060007000F00434F5F53444F5F52A6
:104AEC006561643A2041626F727420726563656916
:104AFC00766564003D3D3D20434F5F53444F5F4915
:104B0C006E69745F53706565644D6F6465202852DF
:104B1C00415720626173656429203D3D3D000000D2
:104B2C00E29C852053706565644D6F64652052412D
:104B3C00572073756363657373000000E29D8C20CE
:104B4C0053706565644D6F646520524157206661F2
:104B5C00696C6564000000008000060007000F000F
:104B6C003D3D3D20434F5F53444F5F496E69745F39
:104B7C00506F736974696F6E4D6F6465203D3D3D78
:104B8C0000000000E29C8520506F736974696F6EA1
:104B9C00206D6F646520696E6974204F4B000000B6
:104BAC00E29D8C20506F736974696F6E206D6F6419
:104BBC006520696E6974204641494C0053594E4337
:104BCC002073656E64206661696C6564000000008A
:104BDC0053594E432073656E740000005250444F7D
:104BEC00202836303430202B20363046462920738E
:104BFC00656E74005250444F2073656E642066617C
:104C0C00696C65640000000053594E4320736B6956
:104C1C0070706564202864697361626C6564290036
:104C2C0043414E5F496E69743A20537461727469E2
:104C3C006E672043414E5F436F6E66696746696CD1
:104C4C007465720043414E5F496E69743A2043416A
:104C5C004E5F436F6E66696746696C74657220447B
:104C6C006F6E650043414E5F496E69743A2048414E
:104C7C004C5F43414E5F5374617274204572726F86
:104C8C007200000043414E5F496E69743A204841FE
:104C9C004C5F43414E5F5374617274204F4B000064
:104CAC0043414E5F496E69743A2048414C5F434121
:104CBC004E5F41637469766174654E6F74696669A1
:104CCC00636174696F6E204572726F720000000030
:104CDC0043414E5F496E69743A2048414C5F4341F1
:104CEC004E5F41637469766174654E6F7469666971
:104CFC00636174696F6E204F4B00000043414E207E
:104D0C004952513A204661696C656420746F206782
:104D1C006574206D65737361676500004552524F71
:104D2C00523A2047657452784D65737361676520FC
:104D3C006661696C65642C20616C74686F7567685A
:104D4C00204649464F206973206E6F6E2D656D703D
:104D5C007479000043414E5F436F6E666967466924
:104D6C006C7465723A2046696C74657220636F6E60
:104D7C0066696775726174696F6E206661696C65CE
:104D8C006400000043414E5F436F6E66696746697D
:104D9C006C7465723A2046696C74657220636F6E30
:104DAC006669677572656420737563636573736692
:104DBC00756C6C79000000003D3D3D205379737497
:104DCC00656D20496E6974203D3D3D00535445503E
:104DDC003A2053746F70206D6F74696F6E00000011
:104DEC00000000000000000001020304060708098F
:104DFC000000000001020304020304050607080971
:104E0C000A0B0C0D0E0F10100102232D302B20005D
:104E1C00686C4C0065666745464700303132333468
:104E2C003536373839414243444546003031323308
:104E3C0034353637383961626364656600000000CA
:084E4C0000B3FF7F010000002C
:044E54003101000820
:044E58000D01000840
:104E5C000024F400100000000100000010000020ED
:104E6C0000000000680A0020D00A0020380B002047
:104E7C000000000000000000000000000000000026
:104E8C000000000000000000000000000000000016
:104E9C000000000000000000000000000000000006
:0C4EAC00000000000000000000000000FA
:0400000508001539A1
:00000001FF
